:020000040800F2
:10000000C8050020010100080D1200080F120008A9
:1000100013120008171200081B120008000000004D
:100020000000000000000000000000001F12000897
:100030002112000800000000231200082512000809
:100040001B0100081B0100081B0100082712000803
:100050001B0100081B0100081B0100081B01000810
:100060001B0100081B0100081B0100081B01000800
:100070001B0100081B0100081B0100081B010008F0
:100080001B0100081B0100081B0100081B010008E0
:100090001B0100081B0100081B0100081B010008D0
:1000A0001B0100081B0100081B0100081B010008C0
:1000B0001B0100081B0100081B0100081B010008B0
:1000C0001B0100081B0100081B0100081B010008A0
:1000D0001B010008431200081B0100081B01000857
:1000E0001B0100081B0100081B010008DFF80CD0F1
:1000F00002F084F800480047DF110008C80500201E
:100100000648804706480047FEE7FEE7FEE7FEE7B1
:10011000FEE7FEE7FEE7FEE7FEE7FEE70302000874
:10012000ED0000080CB50020019000906C480068BC
:1001300040F480306A49086000BF6948006800F4F4
:10014000003000900198401C0190009818B9019867
:10015000B0F5A06FF1D16248006800F4003010B132
:100160000120009001E0002000900098012843D178
:100170005C48006840F010005A4908600846006872
:1001800020F0030008600846006840F002000860A4
:1001900053484068524948600846406848600846ED
:1001A000406840F4806048600846406820F47C1055
:1001B00048600846406840F4E81048600846006817
:1001C00040F08070086000BF4548006800F0007093
:1001D0000028F9D04248406820F0030040494860B8
:1001E0000846406840F00200486000BF3C48406854
:1001F00000F00C000828F9D10CBD10B5FFF792FFF4
:1002000010BD10B53648006840F001003449086060
:10021000084640683449084031494860084600684B
:10022000324908402E4908600846006820F48020C2
:1002300008600846406820F4FE0048604FF41F0044
:100240008860FFF7DAFF4FF000602949086010BDB1
:1002500010B5002100200022214B5B6803F00C0147
:1002600021B1042906D0082928D107E0214B224CCE
:10027000236027E01F4B204C236023E0184B5B6872
:1002800003F47010164B5B6803F48032022303EB17
:10029000904022B9194B4343174C23600DE0104B9B
:1002A0005B6803F4003323B1144B4343124C2360C7
:1002B00003E0104B4343104C236003E00D4B0E4C06
:1002C000236000BF00BF064B5B68C3F303130C4CF5
:1002D000E15C094B1B68CB40074C236010BD00005C
:1002E00000100240002002400000FFF8FFFFF6FE71
:1002F00008ED00E000127A000000002000093D0037
:100300000400002031490143314A1160704770B543
:10031000002100230F22C47804B32D4C246804F478
:10032000E064C4F5E064210AC1F10403CA404478E2
:1003300004FA03F18478144021430901254C06781E
:10034000A155047804F01F050124AC4005786D1117
:10035000AD0005F1E025C5F8004109E0047804F09E
:100360001F050124AC401C4D0678761145F8264047
:1003700070BD1A4A0A400243154B1B1F1A60704792
:1003800039B1134A121D12680243114B1B1D1A602A
:1003900006E00F4A121D126882430D4B1B1D1A60A6
:1003A0007047042808D14FF0E021096941F00401A9
:1003B0004FF0E022116107E04FF0E021096921F0E0
:1003C00004014FF0E0221161704700000000FA05BF
:1003D0000CED00E000E400E080E100E080FFFF1FA2
:1003E00010B5012000F014FC002000F011FC10BD3D
:1003F0002A49086070472949091F08607047274942
:1004000084310860704701460020254A10884FF665
:100410007F4210400843224A108070470146002066
:100420001F4A10884FF68072104008431C4A108003
:10043000704708B500220092194A2C3A0092009A9F
:1004400002440092009A116008BD08B501460020E0
:10045000009013482C3800900098084400900098B1
:10046000008808BD0D489C300068C0B270470C4839
:100470000830008840F001000949083108807047C1
:100480000648A0300068C0B27047054808300088B0
:1004900040F00200024908310880704704860D428E
:1004A0002C6C004010B50446CC48844208D1012190
:1004B000042000F093FB0021042000F08FFB46E0B5
:1004C000C748844208D10121082000F087FB0021A1
:1004D000082000F083FB3AE0C248844208D10121A1
:1004E000102000F07BFB0021102000F077FB2EE0B5
:1004F000BD48844208D10121202000F06FFB00217B
:10050000202000F06BFB22E0B848844208D1012192
:10051000402000F063FB0021402000F05FFB16E06C
:10052000B348844208D10121802000F057FB00210C
:10053000802000F053FB0AE0AE48844207D101213D
:10054000801500F04BFB0021A01500F047FB10BD0B
:1005500010B50121084600F041FB0021012000F008
:100560003DFB10BD2DE9F04102460025002600208C
:1005700000230024002791F803C00CF00F0591F828
:1005800003C00CF0100CBCF1000F03D091F802C0B6
:100590004CEA050591F800C0BCF1000F31D0146899
:1005A00000202BE04FF0010C0CFA00F3B1F800C072
:1005B0000CEA03069E4220D183004FF00F0C0CFA88
:1005C00003F7BC4305FA03FC4CEA040491F803C0AA
:1005D000BCF1280F06D14FF0010C0CFA00FCC2F858
:1005E00014C00AE091F803C0BCF1480F05D14FF0E8
:1005F000010C0CFA00FCC2F810C0401C0828D1D332
:100600001460B1F800C0BCF1FF0F34DD5468002065
:100610002EE000F1080C4FF0010808FA0CF3B1F8D5
:1006200000C00CEA03069E4221D183004FF00F0C5C
:100630000CFA03F7BC4305FA03FC4CEA040491F8F6
:1006400003C0BCF1280F05D100F1080C08FA0CF822
:10065000C2F8148091F803C0BCF1480F07D100F133
:10066000080C4FF0010808FA0CF8C2F81080401C82
:100670000828CED35460BDE8F0814FF6FF710180A9
:10068000022181700421C1707047024600209368E6
:100690000B400BB1012000E0002070470146886844
:1006A00080B2704702460020D3680B400BB1012096
:1006B00000E0002070470146C86880B270470161C1
:1006C0007047416170470AB1016100E041617047C4
:1006D000C16070474FF480320A4382618161826158
:1006E00082698269704702460020434B18684FF6C2
:1006F0008073184040EA021008433F4B186070476F
:100700003E49C8617047F0B50A4600230024002125
:10071000002500F00046B6F1004F02D1364EF169D7
:1007200001E0354E7168C0F3034583B200F4401612
:10073000B6F5401F08D121F070612F4E766826F083
:1007400070662D4F7E6012E000F48016B6F5801FB3
:1007500006D1032606FA05F4A14341F0706106E0D4
:10076000460D360103FA06F6B14341F0706122B13D
:10077000460D360103FA06F6314300F00046B6F1A5
:10078000004F02D11C4EF16101E01B4E7160F0BDC3
:1007900030B500228B071C0F0F2303FA04F2164B0F
:1007A00008338C1053F824309343134C08348D10C5
:1007B00044F8253023468C1053F824308C07240F3E
:1007C00000FA04F423430C4C08348D1044F825300F
:1007D00030BD0A49DC310860704700000008014064
:1007E000000C0140001001400014014000180140BD
:1007F000001C014000200140000001400000204298
:1008000010B50121080700F0F6F900214FF08050E3
:1008100000F0F1F910BD2A490862704728490861C3
:10082000704701460020274A106820F0E000084386
:10083000106070472249A0310860704710B5024629
:100840000020204B186820F00300104318601E4B56
:100850001B6843F004031C4C2360012901D130BF05
:1008600000E020BF184B1B6823F00403164C2360E4
:1008700010BD1448006840F00400124908600846A2
:10088000006840F0020008600F48006840F0040073
:100890000D49086000BF00BF30BF7047014600200F
:1008A000084A52680A400AB1012000E0002070475F
:1008B0000449096841EA8001024A1160704700005A
:1008C00000000E420070004010ED00E0DF480068BC
:1008D00040F00100DD49086008464068DC490840F6
:1008E000DA49486008460068DA490840D749086094
:1008F0000846006820F4802008600846406820F41C
:10090000FE0048604FF41F0088607047CF490968B7
:1009100021F48031CD4A11601146096821F480210B
:100920001160B0F5803F03D0B0F5802F0ED106E006
:10093000C649096841F48031C44A116007E0C349DF
:10094000096841F4A021C14A116000E000BF00BF66
:10095000704710B501460022002300204A11012AE9
:1009600002D1BA4C236806E0022A02D1B74C236AAE
:1009700001E0B64C636A01F01F02012494401C4060
:100980000CB1012000E0002010BD38B5002000901F
:100990000024002500BF3120FFF7DBFF054600984B
:1009A000401C00900098B0F5A06F01D0002DF2D04F
:1009B0003120FFF7CEFF08B1012400E000242046DB
:1009C00038BD01460020A14A106820F0F80040EA36
:1009D000C10010607047A0490860704702460020BF
:1009E0009A4B586820F47C1042EA01031843974B55
:1009F0005860704798490866704701460020934A3E
:100A0000506820F003000843506070478F484068EA
:100A100000F00C007047014600208C4A506820F01E
:100A2000F00008435060704701460020874A506834
:100A300020F4E06008435060704701460020834A7C
:100A4000506820F4605040EAC1005060704729B1FE
:100A50007E4A527A02437D4B5A7204E07B4A527AB4
:100A600082437A4B5A7270477B49D831086070478D
:100A700001460020754A506820F440400843506009
:100A800070470021714A20321170704A82F820109C
:100A9000012802D004280AD104E001216B4A203247
:100AA000117005E00521694A2032117000E000BF95
:100AB00000BF70476949086070476449096A01438B
:100AC000624A11627047654944390860704730B521
:100AD00000210022002400235C4D6D6805F00C010C
:100AE00021B1042905D0082923D105E05C4D05601A
:100AF00022E05B4D05601FE0544D6D6805F47012F7
:100B0000524D6D6805F48034022505EB92421CB904
:100B1000544D554305600BE04C4D6D6805F40035B0
:100B20001DB1504D5543056002E04D4D55430560E4
:100B300002E04B4D056000BF00BF444D6D6805F0FD
:100B4000F0010909484D6B5C0568DD4045603F4D8B
:100B50006D6805F4E061090A434D6B5C4568DD4052
:100B600085603A4D6D6805F46051C90A3E4D6B5C75
:100B70004568DD40C560354D6D6805F44041890B21
:100B80003A4D6B5CC568B5FBF3F5056130BD29B125
:100B90002E4A526902432D4B5A6104E02B4A526996
:100BA00082432A4B5A61704729B1284A926902430D
:100BB000264B9A6104E0254A92698243234B9A614D
:100BC000704729B1214AD2690243204BDA6104E01F
:100BD0001E4AD26982431D4BDA61704729B11B4A14
:100BE000D2680243194BDA6004E0184AD2688243A3
:100BF000164BDA60704729B1144A12690243134B4D
:100C00001A6104E0114A12698243104B1A6170475D
:100C100012494039086070470F49C86470470B4952
:100C2000C87170470948406A40F0807007494862BF
:100C3000704701460020054A92680A400AB1012027
:100C400000E00020704701498872704700100240A0
:100C50000000FFF8FFFFF6FE00004242800442421F
:100C600000127A0000093D0014000020240000203A
:100C700029B1504A128802434E4B1A8004E04D4A73
:100C8000128882434B4B1A8070474A48001D0088E7
:100C900040F010004749091D088070474548001D75
:100CA00000884FF6EF7108404249091D08807047DF
:100CB000002140481C300188001F008841EA0040A4
:100CC000704700B50246FFF7E0FF100C39491831B4
:100CD0000880091D0A80FFF7E1FF00BD00B502464C
:100CE000FFF7D3FFC2F30340324908310880091DE2
:100CF0000A80FFF7D3FF00BD00B50246FFF7C5FF2E
:100D0000100C2C4920310880091D0A80FFF7C6FF0E
:100D100000BD00202749103109880907080B254923
:100D2000143109880843704700BF2248001D00881D
:100D300000F020000028F8D070471E48001D0088F1
:100D40004FF6F77108401B49091D088000BF19487C
:100D5000001D008800F008000028F8D07047014608
:100D60000020144A121D12880A400AB1012000E036
:100D7000002070470F49091D098881430D4A121D43
:100D800011807047014600200A4A121D12880A404D
:100D9000D0B2084A12880A4012B108B1012000E01E
:100DA000002070470349091D09888143014A121D2B
:100DB000118070470028004010B50446FB4884426B
:100DC00009D101218803FFF709FF00214FF480407A
:100DD000FFF704FF32E0F648844209D101214804BC
:100DE000FFF709FF00214FF40030FFF704FF25E073
:100DF000F048844209D101218804FFF7FCFE00215C
:100E00004FF48020FFF7F7FE18E0EB48844209D149
:100E10000121C804FFF7EFFE00214FF40020FFF787
:100E2000EAFE0BE0E548844208D101210805FFF7FE
:100E3000E2FE00214FF48010FFF7DDFE10BD2DE92A
:100E4000F04786B005460E460024A24600BFA146E4
:100E50000027B08900B100BF2F462C8A4CF6FF70E6
:100E60000440F08804432C82AC894EF6F310044011
:100E7000B08831890843718908430443AC81AC8A46
:100E80004FF6FF400440B0890443AC8201A8FFF74D
:100E90001EFEC648874202D1DDF810A001E0DDF851
:100EA0000CA0A88900F4004040B10AEBCA0000EB96
:100EB0000A1031684900B0FBF1F807E00AEBCA00FC
:100EC00000EB0A1031688900B0FBF1F86420B8FB30
:100ED000F0F004012009642101FB1089A88900F4C5
:100EE000004040B1322000EBC900B0FBF1F000F04F
:100EF0000700044308E0322000EB09106421B0FB36
:100F0000F1F000F00F0004432C8106B0BDE8F0873B
:100F10004FF41651016000218180C18001810C21B4
:100F2000418100218181704710B502460020108A5E
:100F30004FF2FF0318400B884C8823438C882343CF
:100F4000CC8823431843108210BD002101804180CA
:100F50008180C180704721B1828942F40052828130
:100F600004E082894DF6FF731A4082817047F0B524
:100F70000346002400260025002040F66A17B942E7
:100F800000D100BF1846C1F3421401F01F0601272B
:100F900007FA06F5012C01D10C3004E0022C01D136
:100FA000103000E014301AB107682F43076002E0E8
:100FB0000768AF430760F0BD1AB1838A0B43838291
:100FC00002E0838A8B4383827047028A4FF6F07374
:100FD0001A400282028A0A430282704782894FF2D3
:100FE000FF731A40828182890A438281704721B14E
:100FF000828942F00202828104E082894FF6FD7309
:101000001A4082817047028A4FF6DF731A400282CB
:10101000028A0A430282704721B1028A42F4804266
:10102000028204E0028A4BF6FF731A400282704784
:10103000C1F308028280704701468888C0F3080027
:101040007047818941F0010181817047028BD2B2E2
:101050000283028B42EA012202837047028B02F470
:101060007F420283028B0A430283704721B1828A46
:1010700042F02002828204E0828A4FF6DF731A4037
:101080008282704721B1828A42F01002828204E09B
:10109000828A4FF6EF731A408282704721B1828AAA
:1010A00042F00802828204E0828A4FF6F7731A4007
:1010B0008282704721B1828942F40042828103E03A
:1010C0008289C2F30E028281704721B1828A42F482
:1010D0000062828204E0828A4FF2FF731A408282A9
:1010E0007047828A4FF6FB731A408282828A0A43D3
:1010F0008282704721B1828A42F00202828204E039
:10110000828A4FF6FD731A408282704702460020A1
:10111000B1F5007F00D100BF13880B400BB1012057
:1011200000E00020704701F40072B2F5007F00D1AA
:1011300000BFCA430280704770B5024600240023F6
:101140000025002040F66A16B14200D100BFC1F36D
:10115000421501F01F03012606FA03F3012D02D107
:101160009689334006E0022D02D1168A334001E011
:10117000968A33400C12012606FA04F4168834408D
:1011800013B10CB1012000E0002070BD10B50022A9
:10119000002340F66A14A14200D100BF0A120124C4
:1011A0009440A3B2DC43048010BD0000003801402D
:1011B0000044004000480040004C00400050004007
:1011C0000CE00C480068012808D1FFF771FD2146AA
:1011D00009A001F051F8002006490860F1E700F08D
:1011E000E1FC00F053F8084800F027FD0648FFF73F
:1011F000E7FF000028000020525443D2D1BEADD4F6
:10120000CBD0D02564C3EB00A8010020704700BFFD
:10121000FEE700BFFEE700BFFEE700BFFEE7704746
:1012200070477047704710B50120FFF7ABFD38B12C
:101230000120FFF7B7FD012008490860FFF774FDA2
:1012400010BD10B540F225510548FFF775FF20B1DC
:101250000348FFF7F1FEC4B200BF10BD2800002014
:101260000038014008B54FF4E060FFF74BF8252047
:101270008DF8000000208DF801008DF8020001209B
:101280008DF803006846FFF742F808BD00B585B049
:10129000012144F20400FFF787FC4FF40070ADF821
:1012A000100018208DF8130003208DF8120004A9F7
:1012B0002148FFF757F94FF48060ADF81000042083
:1012C0008DF8130004A91C48FFF74CF94FF4E130E6
:1012D00000900020ADF80400ADF80600ADF808005D
:1012E000ADF80C000C20ADF80A0069461348FFF772
:1012F000A6FD01211148FFF72EFE05B000BD70B517
:1013000004460D46E1B20D48FFF792FE00BF802172
:101310000A48FFF7FBFE0028F9D0204670BD10B543
:10132000044600BF20210548FFF7F0FE0028F9D051
:101330000248FFF781FE10BD00080140003801405F
:1013400002460E2A70D2DFE802F086071019222B1F
:10135000353F49535D67727CF748405C00F00800F8
:1013600008B9002070470120FCE7F348405C00F01A
:10137000040008B90020F5E70120F3E7EE48405CDF
:1013800000F0020008B90020ECE70120EAE7EA4893
:10139000405C00F0010008B90020E3E70120E1E72C
:1013A000E54B481C185C00F0800008B90020D9E724
:1013B0000120D7E7E04B481C185C00F0400008B95A
:1013C0000020CFE70120CDE7DB4B481C185C00F084
:1013D000200008B90020C5E70120C3E7D64B481C10
:1013E000185C00F0100008B90020BBE70120B9E745
:1013F000D14B481C185C00F0080008B90020B1E788
:101400000120AFE7CC4B481C185C00F0040008B981
:101410000020A7E70120A5E7C74B481C185C00F097
:10142000020010B900209DE715E001209AE7C24BA9
:10143000481C185C00F0010008B9002092E7012068
:1014400090E7BD4B881C185C00F0800008B90020B4
:1014500088E7012086E7002084E72DE9FF4F83B06D
:101460000C461F466421039890FBF1F0C0B2019036
:10147000039890FBF1F201FB1200C5B2019813280A
:1014800006D00198142803D0002007B0BDE8F08FE3
:101490000198142806D105F1630000EB40001FFA03
:1014A00080F904E0681E00EB40001FFA80F9A249B1
:1014B00009F10200085C00F0600A4FEA6A1A09F1BB
:1014C0000200085C00F01F0BBAF1010F04D1ABF170
:1014D000010000F0FF0803E00BF11E0000F0FF0820
:1014E0000A2C07DA601E9549095C05980844401EDD
:1014F00086B208E0A4F10A00914931F8101005986D
:101500000844401E86B2022C08DDE91705EB9171F4
:101510008910A5EB810109B9701C86B246453EDBF6
:10152000A6EB080086B20124012002900020009062
:1015300049460298FFF704FF10B94FF01D0A01E079
:101540004FF01E0A7C4911F80900C11700EB117118
:101550004FEA211B1DE0A6EB0A0086B20298401C50
:10156000C0B202905C4508D10098C043C0B2009060
:10157000009820B9601CC4B201E0601CC4B24946A6
:101580000298FFF7DDFE10B94FF01D0A01E04FF0A1
:101590001E0A5645DFDA701CC0B205904FE0A8EB7A
:1015A000060000F0FF081DB963251320019001E03B
:1015B000681EC5B2A9F103001FFA80F90C245E4928
:1015C00011F80900C11700EB11714FEA211BBBF1A3
:1015D000000F02D10C20029001E00D2002900020AB
:1015E000009049460298FFF7ABFE10B94FF01D0A74
:1015F00001E04FF01E0A1BE0A8EB0A0000F0FF0814
:101600000298401EC0B20290009808B9601EC4B291
:101610005C4503D10098C043C0B20090494602988F
:10162000FFF78EFE10B94FF01D0A01E04FF01E0AC1
:10163000D045E1DCAAEB0800401CC0B2059001983F
:1016400007F8010B07F8015B07F8014B05983870A4
:1016500001201AE710B50A46B0F5F86F09DBA0F5CE
:10166000F86398B23C2390FBF3F403FB1403D9B264
:101670000AE0C0F5F86398B23C2390FBF3F403FB57
:101680001403C3F13C03D9B2117010BD10B500238F
:1016900005E011F8014B00F8014B5C1CA3B293422A
:1016A000F7DB10BD2DE9FC4105460E4617461C46EA
:1016B0000F2224A12046FFF7E9FF01AB3A4631464D
:1016C0002846FFF7CAFE08B9BDE8FC819DF8052051
:1016D0009DF8041001EBC10303EB011102EB810043
:1016E0006946FFF7B7FF9DF800000A2190FBF1F271
:1016F00001FB1200174951F8208002224146204682
:10170000FFF7C4FF9DF800000C2190FBF1F201FBF4
:101710001200114951F8208002224146A01CFFF717
:10172000B5FF9DF8060001281AD102220BA1A01DC9
:10173000FFF7ACFF1EE000007024000876270008C9
:1017400080270008BCD7D7D3C4EAD5FDD4C2B3F5EF
:10175000D2BB00008C000020B4000020D5FD0000AA
:101760009DF80600401E8C4A52F820100222A01D4F
:10177000FFF78CFF9DF807000A280EDD9DF8070093
:101780000A2190FBF1F0854951F820800222414660
:1017900004F10A00FFF77AFF05E0022280A104F1BC
:1017A0000A00FFF773FF9DF80700401E0A2190FB17
:1017B000F1F201FB1200784951F8208002224146E3
:1017C00004F10C00FFF762FF00BF7DE72DE9F04157
:1017D00004460D46B4F5FA6F03DB40F6020084427E
:1017E00002DD0020BDE8F0810DB10C2D01DD0020EF
:1017F000F8E7681E4006010E0F2A01DB481CC1B243
:1018000008464FEAE17C01EB5C7C4FEAEC08A4F56A
:10181000FA6C0CEB4C0CC444DFF8888118F80C60AF
:101820004FEAE17C01EB5C7C4FEAEC0CA1EBCC0CC9
:1018300006FA0CFC0CF080075B48405C187097B10E
:10184000012905D00B2903D0122901D0152907D170
:1018500040F2FC70844203DA1878401C187002E0F1
:101860001878401E18700120BCE72DE9F8430546A2
:10187000884614461E466B46224641462846FFF7D8
:10188000A5FF10B90020BDE8F883A8F101004006CB
:10189000070E0F2C01DB781CC7B29DF800008442B4
:1018A00008D1424850F8271005223046FFF7EEFED7
:1018B0000120E8E70F223EA13046FFF7E7FE9DF842
:1018C000000084420BDA394850F827100422B01C7B
:1018D000FFF7DCFE9DF80000001BC4B24DE0781C51
:1018E000172801DD0020CEE7304A781C52F820107E
:1018F0000422B01CFFF7CAFE0F2C0ADA6B460F2237
:1019000041462846FFF762FF9DF80000001BC4B265
:1019100033E0A8F101002A4911F80090B8F1020F54
:1019200017D1E91705EB91718910A5EB810181B9F8
:10193000642195FBF1F201FB125131B94FF4C871EA
:1019400095FBF1F201FB125119B909F1010000F008
:10195000FF0908F10100C0B280460D2801D14FF007
:1019600001086B46012241462846FFF72FFFA9EBED
:1019700004009DF800100844C4B20A2094FBF0F063
:101980003030B0720A2094FBF0F100FB114030308F
:10199000F072012077E70000E4000020140100202D
:1019A000B3F50000C52600085E2700082C000020C3
:1019B000C0EBC1A2B6ACBBB9D3D03F3FCCEC00006A
:1019C00092270008F0B58DB004463022714901A875
:1019D00000F0ECFB6069451E642195FBF1F128469F
:1019E000EA1705EB9272C1EBA2014FF4C87295FBA6
:1019F000F2F28F186069C11700EB91718910A0EBAA
:101A0000810191B96422616991FBF2F302FB131128
:101A100031B99200616991FBF2F302FB131121B914
:101A20002169022901DD012600E0002640F26D1047
:101A300005FB00712069401E01AA52F820000844ED
:101A4000E16808440644072096FBF0F100FB1160B2
:101A5000A0610DB0F0BD10B501460869801E086197
:101A6000002805DC08690C3008614869401E48619F
:101A70006423486990FBF3F04A69D31702EB937330
:101A8000C0EBA3004FF4C87492FBF4F3034440F29C
:101A90006F14086960430C2490FBF4F01844CB6881
:101AA000034440F26D1402FB04303B4BC01A00EBC0
:101AB00040008B6803EBC000C0EB00104B6803EBE9
:101AC0008000C0EB00100B6803EB8000A0F5E14044
:101AD00010BD2DE9F04107460C463048B7FBF0F643
:101AE000B7FBF0F100FB11784FF4616098FBF0F068
:101AF000A0604FF4616098FBF0F100FB11803C2185
:101B000090FBF1F060604FF4616098FBF0F100FB36
:101B100011803C2190FBF1F201FB1200206040F2A9
:101B2000B27509E005F0030010B94FF4B77001E099
:101B300040F26D10361A6D1C05F0030010B94FF419
:101B4000B77001E040F26D10B042EBDD6561606995
:101B5000C11700EB91718910A0EB810111B91D2013
:101B60000F494860012505E0681E0D4951F8200025
:101B7000361A6D1C681E0A4951F82000B042F3DD88
:101B80001C2048602561701CE0602046FFF71AFFAA
:101B9000BDE8F081A02700088BFA0A0080510100FF
:101BA0002401002008B54FF4C060FEF7ABFB032012
:101BB0008DF8000001208DF8010000208DF8020052
:101BC00001208DF803006846FEF7A1FB08BD10B5A3
:101BD0000446FFF7A9F80020FFF773F8FFF7A4F811
:101BE00010BD10B501214FF0C050FEF7EAFF0120F3
:101BF000FEF711FEFEF7F4FB0120FEF742FF00BFE7
:101C00004120FEF7A6FE0028FAD04FF48070FEF7C0
:101C100054FF0120FEF757FFFFF78FF8FFF784F816
:101C200001210846FFF724F8FFF77EF847F6FF701A
:101C3000FFF754F8FFF778F810BD10B504460420FC
:101C4000FEF703FC4AF2A551884210D09EA000F096
:101C500013FBFFF7C6FFA6A000F00EFB2046FFF720
:101C6000B6FF4AF2A5510420FEF7E3FB19E07B2002
:101C7000FEF76FFE18B1A3A000F0FEFA06E07A208E
:101C8000FEF767FE10B1A4A000F0F6FAA7A000F0DE
:101C9000F3FAFFF752F801210846FEF7E9FFFFF7D4
:101CA00043F8FEF7BFFF10BD7CB5054600240020B9
:101CB000009001901BE000BF2021A148FFF726FA09
:101CC0000028F9D09E48FFF7B7F92146641C4DF86B
:101CD0002100601E5DF82000302804D3601E5DF8EE
:101CE0002000392803D997A000F0C6FA641E022C00
:101CF000E1D3019830380099303901EB810100EBD4
:101D00004104AC4205D929469BA000F0B5FAFF205A
:101D10007CBDE0B2FCE72DE9F04704464FF0FF0A36
:101D2000FF25FF26FF27A846A9469FA000F0A4FA9A
:101D3000ACA000F0A1FA03E06320FFF7B5FF8246F4
:101D4000BAF1FF0FF8D05146B0A000F095FA0AF5AD
:101D5000FA606061FF25B5A000F08EFA03E00C2068
:101D6000FFF7A2FF0546FF2DF9D02946B9A000F0E4
:101D700083FA2561FF26BDA000F07EFA03E01F2054
:101D8000FFF792FF0646FF2EF9D03146C0A000F0C3
:101D900073FAE660FF27C4A000F06EFA03E0172094
:101DA000FFF782FF0746FF2FF9D03946C7A000F0A2
:101DB00063FAA7604FF0FF08CAA000F05DFA03E0E5
:101DC0003B20FFF771FF8046B8F1FF0FF8D0414686
:101DD000CEA000F051FAC4F804804FF0FF09D1A062
:101DE00000F04AFA03E03B20FFF75EFF8146B9F1BD
:101DF000FF0FF8D04946D5A000F03EFAC4F8009095
:101E0000BDE8F087F0B58BB005460C4605F5E14618
:101E100021463046FFF75DFEA06818B9606808B932
:101E2000206818B1CF48006800282CD0227B217C84
:101E3000A38A98B207ABFFF710FB9DF81F00009034
:101E40009DF81E309DF81D209DF81C10C6A000F0C6
:101E500013FA227B217CA38A98B207ABFFF722FCFE
:101E600007A9CAA000F008FA227B217CA38A98B2B5
:101E700007ABFFF7FAFC18B107A9C4A000F0FCF902
:101E80000020B84908606069C01E0C2190FBF1F287
:101E900001FB1200C24951F82070DFF808C3A369A2
:101EA0005CF8233094E80700CDE90232CDE9041054
:101EB000D4E90310CDE900013B462946BA486269DE
:101EC00000F0DAF90BB0F0BD20525443CEB4B3F5B4
:101ED000CABCBBAFA3ACD0E8D2AAB6D4525443BD5F
:101EE000F8D0D0C5E4D6C32E0D0A0D0A200000009C
:101EF00020525443C5E4D6C3CDEAB3C90D0A0D0A36
:101F00002000000020CFB5CDB3B5F4B5E7D6D8C6D4
:101F1000F4200D0A0D0A200020CFB5CDB3B8B4CE01
:101F2000BBC6F4B6AF200D0A0D0A20002052544360
:101F3000BCC6CAFDB9A4D7F7D5FDB3A30D0A2000CE
:101F4000003801400A0D506C6561736520656E7440
:101F500065722076616C6964206E756D62657220B1
:101F60006265747765656E203020616E642039206B
:101F70002D2D3E3A202000000A0D506C65617365DE
:101F800020656E7465722076616C6964206E756D73
:101F9000626572206265747765656E203020616EBF
:101FA00064202564000000000D0A3D3D3D3D3D3D9F
:101FB0003D3D3D3D3D3D3D3D3D3D3D3D3D3D3D3D51
:101FC0003D3D3D54696D652053657474696E67735A
:101FD0003D3D3D3D3D3D3D3D3D3D3D3D3D3D3D3D31
:101FE0003D3D00000D0A2020C7EBCAE4C8EBC4EA5F
:101FF000B7DD28506C6561736520536574205965A1
:10200000617273293A202032300000000A0D20202E
:10201000C4EAB7DDB1BBC9E8D6C3CEAA3A202032A4
:102020003025302E32640A0D000000000D0A2020F9
:10203000C7EBCAE4C8EBD4C2B7DD28506C65617346
:102040006520536574204D6F6E746873293A2020A3
:10205000000000000A0D2020D4C2B7DDB1BBC9E8E2
:10206000D6C3CEAA3A202025640A0D000D0A2020EE
:10207000C7EBCAE4C8EBC8D5C6DA28506C656173F3
:102080006520536574204461746573293A202000EB
:102090000A0D2020C8D5C6DAB1BBC9E8D6C3CEAA7E
:1020A0003A202025640A0D000D0A2020C7EBCAE45F
:1020B000C8EBCAB1D6D328506C65617365205365EF
:1020C0007420486F757273293A2020000A0D202071
:1020D000CAB1D6D3B1BBC9E8D6C3CEAA3A2020250F
:1020E000640A0D000D0A2020C7EBCAE4C8EBB7D67E
:1020F000D6D328506C6561736520536574204D6993
:102100006E75746573293A20200000000A0D2020A6
:10211000B7D6D6D3B1BBC9E8D6C3CEAA3A202025BC
:10212000640A0D000D0A2020C7EBCAE4C8EBC3EB1C
:10213000D6D328506C656173652053657420536550
:10214000636F6E6473293A20200000000A0D20207E
:10215000C3EBD6D3B1BBC9E8D6C3CEAA3A2020255B
:10216000640A0D00A00100200D0A20BDF1CCECD0C6
:10217000C2C0FAA3BA25302E326425302E32642C28
:1021800025302E32642C25302E3264000D0A20BDFD
:10219000F1CCECC5A9C0FAA3BA25730D0A00000062
:1021A00070010020540100202029000840EA0103AA
:1021B0009B0703D009E008C9121F08C0042AFAD2FD
:1021C00003E011F8013B00F8013B521EF9D27047C1
:1021D00030B50B46014600202022012409E021FAF7
:1021E00002F59D4205D303FA02F5491B04FA02F5F4
:1021F0002844151EA2F10102F1DC30BD064C074D4A
:1022000006E0E06840F0010394E8070098471034C6
:10221000AC42F6D3FDF76EFFA4290008C4290008DC
:1022200070B58C1810F8015B15F0070301D110F898
:10223000013B2A1106D110F8012B03E010F8016BC5
:1022400001F8016B5B1EF9D12B0705D40023521E48
:102250000DD401F8013BFAE710F8013BCB1A921CB0
:1022600003E013F8015B01F8015B521EF9D5A142AE
:10227000D8D3002070BD00000FB4054B10B503A9E2
:10228000044A029800F018F810BC5DF814FB000036
:10229000FF120008A401002002E008C8121F08C1B4
:1022A000002AFAD170477047002001E001C1121FD7
:1022B000002AFBD1704700002DE9FF4F8BB09A46F2
:1022C0000F460546002606E025280BD052460D99FC
:1022D00090476D1C761C28780028F5D10FB0304649
:1022E000BDE8F08F0024A0460122604900E00443CD
:1022F00015F8013F203B02FA03F00842F7D1287895
:102300002E2817D115F8010F44F004042A280ED006
:102310006FF02F022878A0F1300109290AD808EBC4
:10232000880102EB410100EB01086D1CF2E757F850
:10233000048B6D1C287869283ED006DC0028CDD09F
:1023400063280BD0642804D136E0732810D0752898
:102350004BD052460D999047761C85E017F8040B38
:102360008DF8000000208DF80100E946012003E00F
:1023700057F8049B4FF0FF3061074FF0000401D481
:102380000AE0641C44450DDA8442FADB19F80410B3
:102390000029F6D106E0641C8442FCDB19F8041025
:1023A0000029F8D1264404E019F8010B52460D9992
:1023B0009047641EF8D257E001CF4FF00A0B002877
:1023C00002DA40422D2102E0210504D52B218DF8AF
:1023D0002410012103E0E10705D02021F7E70DF1EA
:1023E000200908910CE00021F9E701CF4FF00A0B1A
:1023F000F9E75946FFF7ECFE01F1300209F8012D2B
:102400000028F6D1ADEB090000F1200B600701D4E4
:102410004FF00108D84502DDA8EB0B0000E00020DA
:102420008046002406E009A85246005D0D999047B9
:10243000641C761C08988442F5DB04E03020524688
:102440000D999047761CB8F10001A8F10108F5DC60
:1024500005E019F8010B52460D999047761CBBF127
:102460000001ABF1010BF4DC6D1C34E7092801001D
:1024700004AE530A57485526BD0D26500D954446C7
:10248000AAB9056A4D09AD4224AEB604AE4A6A4DFA
:10249000BE0A4D520D25465D52BA0B544E0D6A438D
:1024A000296D37095B4B749BC10497540A4B485BF9
:1024B00025BC06A55006D4454ADAB802B64D0957E0
:1024C000422497B704974A664B3E0D4A510EA546E3
:1024D00056D4BA05AD4E02B644393738092E4B7C76
:1024E00096BF0C95530D4A486DA53B0B554F056A99
:1024F000454AADB9025D4D092D422C95B60A954A63
:102500007B4ABD06CA510B5546555ABB04DA4E0AE2
:102510005B43352BB8052B4C8A953F0E955206AA86
:10252000487AD53C0AB54F04B6454A57390A574D43
:102530000526423E93350D954975AABE056A510997
:102540006D4654AEBB04AD4F0A4D434D26B70D2525
:102550004B8D52BF0B54520B6A47696D3C095B505F
:10256000049B454A4BB90A4B4DAB25C206A5540600
:10257000D4496ADA3D0AB6510937465497BB0497E5
:102580004F064B4436A5370EA54A86B2BF05AC535D
:102590000AB6475936BC092E500C96454D4AB80D1F
:1025A0004A4C0DA54125AAB6056A497AADBD025D22
:1025B00052092D475C95BA0A954E0B4A434B553745
:1025C0000AD54A955ABF04BA530A5B48652BBC0525
:1025D0002B500A9345474AB906AA4C0AD54124DA3A
:1025E000B604B64A69573D0A4E510D26465E933AE7
:1025F0000D534D05AA4336B537096D4BB4AEBF0434
:10260000AD530A4D486D25BC0D254F0D52445DAAB2
:10261000380B5A4C056D4124ADB6049B4A7A4BBE2B
:102620000A4B510AA5465B52BA06D24E0ADA423527
:102630005B3709374B8497C1049753064B4866A50F
:102640003C0EA54F06B2444AB6380AAE4C092E429B
:102650003C97350C96497D4ABD0D4A510DA545550F
:10266000AABA056A4E0A6D43452EB7052D4B8A95C9
:10267000BF0A95530B4A476B553B0AD54F055A4540
:102680004A5D380A5B4C052B423A93B6069349776C
:1026900029BD06AA510AD54654DABA04B64E0A57DD
:1026A000434527380D264A8E933E0D52520DAA47B8
:1026B00066B53B056D4F04AE454A4EB90A4D4C0D0B
:1026C00015412D92B54EA6999CA298800018001035
:1026D000244EA6999CA2988082180010244EA6D958
:1026E0009EA2988082180010044EE6D99EA6A8806B
:1026F00082180010000FE6D9BEA6988882188000C4
:10270000000FEFD9BEA6998C82988000000FEFDBF6
:10271000BEA6999CA2988000180FEFDBBEA6999CDC
:10272000A2988000180FEFDBBEA2998CA09880823F
:10273000180BEFDBBEA6998CA2988082180FEFDBF6
:10274000BEE6D99EA2988082180FEFFBBFE6D99E05
:10275000A6988082180FFFFFFCEFD9BEA6180614BA
:10276000041306150514061506150717081708178C
:10277000081808160716001F3B5A7897B5D4F300BF
:10278000110130014E010003030601040602050099
:1027900003051F1C1F1E1F1E1F1F1E1F1E1F0000C4
:1027A000000000001F0000003B0000005A00000075
:1027B0007800000097000000B5000000D400000081
:1027C000F300000011010000300100004E01000084
:1027D000B6A10000BAA50000D8A50000D0A1D1A9DB
:1027E00000000000B4F3D1A900000000C1A2B6AC03
:1027F00000000000B6AC0000D0A1BAAE000000009E
:10280000B4F3BAAE00000000C3AE0000CAAE0000D0
:10281000D3EACBAE00000000C0B00000CEB4000090
:10282000CBAABDB500000000BAAEC2B600000000E1
:10283000B0D7C2B600000000C1A2B4BA00000000C8
:10284000BCBA0000D2BB0000B3BD0000D0C1000084
:10285000B6ACD6C100000000CFC4D6C10000000055
:10286000CBC40000C1A2CFC400000000BEC5000060
:10287000CBC80000C8C90000B0CB0000D3CF000017
:10288000D2D20000D7D30000B4BAB7D600000000FF
:10289000C7EFB7D600000000C3A2D6D600000000E4
:1028A000BCD70000BEAAD5DD00000000C6DF0000D6
:1028B000CEE50000CEE70000D0E70000C9EA000046
:1028C000B9C8D3EA00000000CEEC0000D0A1CAEEE7
:1028D00000000000B4A6CAEE00000000B4F3CAEE87
:1028E00000000000B9EF0000C1A2C7EF0000000027
:1028F000B3F30000B3F50000C7E5C3F70000000024
:10290000C1F90000CFC4C2FA00000000D2FA0000F2
:10291000B1FB0000B8FD0000C8FD0000B6FE0000DD
:1029200020554E4958CAB1BCE4B4C1203D202564AD
:1029300020B5B1C7B0CAB1BCE4CEAA3A202564C460
:10294000EA282573C4EA29202564D4C2202564C856
:10295000D52028D0C7C6DA257329202025302E326D
:10296000643A25302E32643A25302E32640D000050
:10297000BBA20000C5A30000BCA60000B9B70000C0
:10298000CDC30000C8D50000C9DF0000C2ED0000C3
:10299000D6ED0000BAEF0000D1F20000CAF300004B
:1029A000C1FA0000C429000800000020A8010000AE
:1029B00020220008C82A0008A801002020040000E6
:1029C000A82200081184A24A04680901020304062F
:1029D0000708090C6910450204060813F8271208B5
:1029E00012281B0838041A10041AA4041A88041A9E
:1029F000F8041AC0041A64041304291B0898081A5E
:102A000058041ACC041ADC041AE8041AD4041A3044
:102A1000041A90041A28041A20041AEC501ADC0430
:102A20001AE4041A50101AA0042A805C19441AD01F
:102A3000141AC80C1A40041A14101A4C081A7404F8
:102A40001AE4041A84041AF0041A0C181A08081A52
:102A500048041A70041AB4041A1C041ABC041A7C20
:102A6000042AB87819482A4418192C1A18041A602C
:102A70000C1AB00411190C1AAC081A78042A6C4C00
:102A800019041AF42C2A180859102AD810192832B7
:102A90001F321C2908DA1E080912141A8434091678
:102AA000741A90041A9C041A74041A70041A80048C
:102AB0001AA0041A88041A8C041A98041A94041A86
:082AC00078041A7C0472010085
:04000005080000ED02
:00000001FF
