:020000040800F2
:100000003804002001010008E1020008E3020008B2
:10001000E7020008EB020008EF0200080000000001
:10002000000000000000000000000000F3020008D3
:10003000F502000800000000F7020008F9020008BD
:100040001B0100081B0100081B010008FB0200083F
:100050001B0100081B0100081B0100081B01000810
:100060001B0100081B0100081B0100081B01000800
:100070001B0100081B0100081B0100081B010008F0
:100080001B0100081B0100081B0100081B010008E0
:100090001B0100081B0100081B0100081B010008D0
:1000A0001B0100081B0100081B0100081B010008C0
:1000B0001B0100081B0100081B0100081B010008B0
:1000C0001B0100081B0100081B0100081B010008A0
:1000D0001B0100081B0100081B0100081B01000890
:1000E0001B0100081B0100081B010008DFF80CD0F1
:1000F00001F05EFB0048004795020008380400202C
:100100000648804706480047FEE7FEE7FEE7FEE7B1
:10011000FEE7FEE7FEE7FEE7FEE7FEE71F13000847
:10012000ED00000800E0401E0028FCD1704708B533
:100130000121202000F0B0FC0121C80300F0C1FA29
:100140000320ADF8000010208DF8030003208DF887
:1001500002006946574800F0E3F90321554800F0D2
:100160008EFA08BD38B500F0E7FF0446642C57D37B
:1001700051A001F02FFB01211C2000F08DFC00207C
:100180008DF8030001208DF802004FF6FF70ADF8E6
:10019000000069464D4800F0C3F94FF6FF70ADF816
:1001A000000069464A4800F0BBF949F6FF70ADF817
:1001B00000006946474800F0B3F900211C2000F018
:1001C0006BFC0121182000F067FC10208DF8030063
:1001D00001208DF802000003ADF8000069463B489D
:1001E00000F09EF94FF40050ADF800006946384821
:1001F00000F096F94FF40051354800F040FA4FF402
:100200008051324800F03BFA0021334800F077FD7E
:10021000314800F0A5FC0221012000F0C3FE38E0C7
:100220004FF400512A4800F028FA4FF48051274833
:1002300000F023FA01211C2000F02EFC00208DF894
:10024000030001208DF802004FF6FF70ADF80000AA
:1002500069461E4800F064F94FF6FF70ADF80000E3
:1002600069461B4800F05CF949F6FF70ADF80000E4
:100270006946184800F054F900211C2000F00CFCDD
:100280000021154800F03BFD134800F069FC00F028
:10029000A4FE38BD01F014F901F0C2F801F095F99F
:1002A00007E00E48006820B100200C490860FFF705
:1002B00059FFF6E7001401400D0AB6A8CAB1CAB149
:1002C000BCE4D2D1B5BD0D0A00000000000C014015
:1002D00000100140000801400038014000000020EB
:1002E000704700BFFEE700BFFEE700BFFEE700BFAC
:1002F000FEE7704770477047704710B5012000F067
:1003000085FFB0B3012000F091FF1A48007850B18A
:100310004FF40051184800F0B2F94FF480511748DB
:1003200000F0ADF909E04FF40051134800F0A5F9D1
:100330004FF48051114800F0A0F90E480078C043F6
:100340000C49087000F0F8FE0446642C09D34FF401
:100350000051094800F093F94FF48051074800F02C
:100360008EF901F07DF906480068401C04490860D8
:1003700000BF10BD0400002000100140000C01402F
:100380000000002031490143314A1160704770B5C7
:10039000002100230F22C47804B32D4C246804F4F8
:1003A000E064C4F5E064210AC1F10403CA40447862
:1003B00004FA03F18478144021430901254C06789E
:1003C000A155047804F01F050124AC4005786D1197
:1003D000AD0005F1E025C5F8004109E0047804F01E
:1003E0001F050124AC401C4D0678761145F82640C7
:1003F00070BD1A4A0A400243154B1B1F1A60704712
:1004000039B1134A121D12680243114B1B1D1A60A9
:1004100006E00F4A121D126882430D4B1B1D1A6025
:100420007047042808D14FF0E021096941F0040128
:100430004FF0E022116107E04FF0E021096921F05F
:1004400004014FF0E0221161704700000000FA053E
:100450000CED00E000E400E080E100E080FFFF1F21
:1004600010B50446CC48844208D10121042000F094
:100470002DFB0021042000F029FB46E0C748844200
:1004800008D10121082000F021FB0021082000F004
:100490001DFB3AE0C248844208D10121102000F03F
:1004A00015FB0021102000F011FB2EE0BD48844216
:1004B00008D10121202000F009FB0021202000F0BC
:1004C00005FB22E0B848844208D10121402000F019
:1004D000FDFA0021402000F0F9FA16E0B34884420A
:1004E00008D10121802000F0F1FA0021802000F0E5
:1004F000EDFA0AE0AE48844207D10121801500F0F0
:10050000E5FA0021A01500F0E1FA10BD10B50121B7
:10051000084600F0DBFA0021012000F0D7FA10BDF8
:100520002DE9F0410246002500260020002300248A
:10053000002791F803C00CF00F0591F803C00CF0F0
:10054000100CBCF1000F03D091F802C04CEA050575
:1005500091F800C0BCF1000F31D0146800202BE0EE
:100560004FF0010C0CFA00F3B1F800C00CEA0306DE
:100570009E4220D183004FF00F0C0CFA03F7BC43CE
:1005800005FA03FC4CEA040491F803C0BCF1280FFF
:1005900006D14FF0010C0CFA00FCC2F814C00AE0BE
:1005A00091F803C0BCF1480F05D14FF0010C0CFAD3
:1005B00000FCC2F810C0401C0828D1D31460B1F868
:1005C00000C0BCF1FF0F34DD546800202EE000F1C4
:1005D000080C4FF0010808FA0CF3B1F800C00CEA5F
:1005E00003069E4221D183004FF00F0C0CFA03F753
:1005F000BC4305FA03FC4CEA040491F803C0BCF1C7
:10060000280F05D100F1080C08FA0CF8C2F8148084
:1006100091F803C0BCF1480F07D100F1080C4FF06E
:10062000010808FA0CF8C2F81080401C0828CED344
:100630005460BDE8F0814FF6FF71018002218170A6
:100640000421C17070470246002093680B400BB133
:10065000012000E0002070470146886880B27047A2
:1006600002460020D3680B400BB1012000E00020BF
:1006700070470146C86880B27047016170474161A8
:1006800070470AB1016100E041617047C160704785
:100690004FF480320A43826181618261826982699A
:1006A000704702460020434B18684FF6807318408D
:1006B00040EA021008433F4B186070473E49C8614A
:1006C0007047F0B50A46002300240021002500F001
:1006D0000046B6F1004F02D1364EF16901E0354EC9
:1006E0007168C0F3034583B200F44016B6F5401FAD
:1006F00008D121F070612F4E766826F070662D4F7C
:100700007E6012E000F48016B6F5801F06D1032645
:1007100006FA05F4A14341F0706106E0460D36018A
:1007200003FA06F6B14341F0706122B1460D36017D
:1007300003FA06F6314300F00046B6F1004F02D14D
:100740001C4EF16101E01B4E7160F0BD30B500221E
:100750008B071C0F0F2303FA04F2164B08338C107F
:1007600053F824309343134C08348D1044F825304B
:1007700023468C1053F824308C07240F00FA04F41D
:1007800023430C4C08348D1044F8253030BD0A4901
:10079000DC3108607047000000080140000C014097
:1007A000001001400014014000180140001C0140ED
:1007B000002001400000014000002042DF480068A6
:1007C00040F00100DD49086008464068DC49084007
:1007D000DA49486008460068DA490840D7490860A5
:1007E0000846006820F4802008600846406820F42D
:1007F000FE0048604FF41F0088607047CF490968C9
:1008000021F48031CD4A11601146096821F480211C
:100810001160B0F5803F03D0B0F5802F0ED106E017
:10082000C649096841F48031C44A116007E0C349F0
:10083000096841F4A021C14A116000E000BF00BF77
:10084000704710B501460022002300204A11012AFA
:1008500002D1BA4C236806E0022A02D1B74C236ABF
:1008600001E0B64C636A01F01F02012494401C4071
:100870000CB1012000E0002010BD38B50020009030
:100880000024002500BF3120FFF7DBFF054600985C
:10089000401C00900098B0F5A06F01D0002DF2D060
:1008A0003120FFF7CEFF08B1012400E000242046EC
:1008B00038BD01460020A14A106820F0F80040EA47
:1008C000C10010607047A0490860704702460020D0
:1008D0009A4B586820F47C1042EA01031843974B66
:1008E0005860704798490866704701460020934A4F
:1008F000506820F003000843506070478F484068FC
:1009000000F00C007047014600208C4A506820F02F
:10091000F00008435060704701460020874A506845
:1009200020F4E06008435060704701460020834A8D
:10093000506820F4605040EAC1005060704729B10F
:100940007E4A527A02437D4B5A7204E07B4A527AC5
:1009500082437A4B5A7270477B49D831086070479E
:1009600001460020754A506820F44040084350601A
:1009700070470021714A20321170704A82F82010AD
:10098000012802D004280AD104E001216B4A203258
:10099000117005E00521694A2032117000E000BFA6
:1009A00000BF70476949086070476449096A01439C
:1009B000624A11627047654944390860704730B532
:1009C00000210022002400235C4D6D6805F00C011D
:1009D00021B1042905D0082923D105E05C4D05602B
:1009E00022E05B4D05601FE0544D6D6805F4701208
:1009F000524D6D6805F48034022505EB92421CB916
:100A0000544D554305600BE04C4D6D6805F40035C1
:100A10001DB1504D5543056002E04D4D55430560F5
:100A200002E04B4D056000BF00BF444D6D6805F00E
:100A3000F0010909484D6B5C0568DD4045603F4D9C
:100A40006D6805F4E061090A434D6B5C4568DD4063
:100A500085603A4D6D6805F46051C90A3E4D6B5C86
:100A60004568DD40C560354D6D6805F44041890B32
:100A70003A4D6B5CC568B5FBF3F5056130BD29B136
:100A80002E4A526902432D4B5A6104E02B4A5269A7
:100A900082432A4B5A61704729B1284A926902431E
:100AA000264B9A6104E0254A92698243234B9A615E
:100AB000704729B1214AD2690243204BDA6104E030
:100AC0001E4AD26982431D4BDA61704729B11B4A25
:100AD000D2680243194BDA6004E0184AD2688243B4
:100AE000164BDA60704729B1144A12690243134B5E
:100AF0001A6104E0114A12698243104B1A6170476F
:100B000012494039086070470F49C86470470B4963
:100B1000C87170470948406A40F0807007494862D0
:100B2000704701460020054A92680A400AB1012038
:100B300000E00020704701498872704700100240B1
:100B40000000FFF8FFFFF6FE000042428004424230
:100B500000127A0000093D00050000201500002069
:100B600010B50446FB48844209D101218803FFF7F0
:100B7000ADFF00214FF48040FFF7A8FF32E0F648B8
:100B8000844209D101214804FFF7ADFF00214FF451
:100B90000030FFF7A8FF25E0F048844209D1012189
:100BA0008804FFF7A0FF00214FF48020FFF79BFF90
:100BB00018E0EB48844209D10121C804FFF793FFF4
:100BC00000214FF40020FFF78EFF0BE0E548844240
:100BD00008D101210805FFF786FF00214FF480109E
:100BE000FFF781FF10BD2DE9F04786B005460E46A0
:100BF0000024A24600BFA1460027B08900B100BF73
:100C00002F462C8A4CF6FF700440F08804432C8257
:100C1000AC894EF6F3100440B088318908437189DD
:100C200008430443AC81AC8A4FF6FF400440B089CE
:100C30000443AC8201A8FFF7C2FEC648874202D136
:100C4000DDF810A001E0DDF80CA0A88900F4004058
:100C500040B10AEBCA0000EB0A1031684900B0FB52
:100C6000F1F807E00AEBCA0000EB0A1031688900CE
:100C7000B0FBF1F86420B8FBF0F004012009642116
:100C800001FB1089A88900F4004040B1322000EB3C
:100C9000C900B0FBF1F000F00700044308E0322087
:100CA00000EB09106421B0FBF1F000F00F000443E9
:100CB0002C8106B0BDE8F0874FF416510160002189
:100CC0008180C18001810C21418100218181704797
:100CD00010B502460020108A4FF2FF0318400B881F
:100CE0004C8823438C882343CC88234318431082A9
:100CF00010BD0021018041808180C180704721B1F9
:100D0000828942F40052828104E082894DF6FF73A9
:100D10001A4082817047F0B5034600240026002562
:100D2000002040F66A17B94200D100BF1846C1F34F
:100D3000421401F01F06012707FA06F5012C01D124
:100D40000C3004E0022C01D1103000E014301AB154
:100D500007682F43076002E00768AF430760F0BDF4
:100D60001AB1838A0B43838202E0838A8B43838296
:100D70007047028A4FF6F0731A400282028A0A43D1
:100D80000282704782894FF2FF731A408281828902
:100D90000A438281704721B1828942F00202828136
:100DA00004E082894FF6FD731A4082817047028AFF
:100DB0004FF6DF731A400282028A0A4302827047AA
:100DC00021B1028A42F48042028204E0028A4BF698
:100DD000FF731A4002827047C1F308028280704795
:100DE00001468888C0F308007047818941F00101FD
:100DF00081817047028BD2B20283028B42EA0122C8
:100E000002837047028B02F47F420283028B0A4303
:100E10000283704721B1828A42F02002828204E07C
:100E2000828A4FF6DF731A408282704721B1828A2C
:100E300042F01002828204E0828A4FF6EF731A4079
:100E40008282704721B1828A42F00802828204E0E5
:100E5000828A4FF6F7731A408282704721B18289E5
:100E600042F40042828103E08289C2F30E02828151
:100E7000704721B1828A42F40062828204E0828A51
:100E80004FF2FF731A4082827047828A4FF6FB73DB
:100E90001A408282828A0A438282704721B1828A02
:100EA00042F00202828204E0828A4FF6FD731A4009
:100EB0008282704702460020B1F5007F00D100BF5A
:100EC00013880B400BB1012000E00020704701F4B3
:100ED0000072B2F5007F00D100BFCA4302807047A4
:100EE00070B50246002400230025002040F66A1653
:100EF000B14200D100BFC1F3421501F01F0301262A
:100F000006FA03F3012D02D19689334006E0022D43
:100F100002D1168A334001E0968A33400C12012632
:100F200006FA04F41688344013B10CB1012000E035
:100F3000002070BD10B50022002340F66A14A142C3
:100F400000D100BF0A1201249440A3B2DC43048004
:100F500010BD00000038014000440040004800403F
:100F6000004C00400050004010B501210807FFF779
:100F7000BAFD00214FF08050FFF7B5FD10BD2A49A2
:100F80000862704728490861704701460020274AD7
:100F9000106820F0E0000843106070472249A0313B
:100FA0000860704710B502460020204B186820F0FA
:100FB0000300104318601E4B1B6843F004031C4CD5
:100FC0002360012901D130BF00E020BF184B1B680E
:100FD00023F00403164C236010BD1448006840F051
:100FE0000400124908600846006840F002000860EA
:100FF0000F48006840F004000D49086000BF00BFC2
:1010000030BF704701460020084A52680A400AB1C2
:10101000012000E0002070470449096841EA80018E
:10102000024A11607047000000000E42007000404C
:1010300010ED00E010B50120FFF762FD0020FFF782
:101040005FFD10BD2A49086070472949091F0860E3
:101050007047274984310860704701460020254ABF
:1010600010884FF67F4210400843224A1080704794
:10107000014600201F4A10884FF680721040084336
:101080001C4A1080704708B500220092194A2C3A79
:101090000092009A02440092009A116008BD08B5BF
:1010A00001460020009013482C3800900098084416
:1010B00000900098008808BD0D489C300068C0B2C0
:1010C00070470C480830008840F001000949083199
:1010D000088070470648A0300068C0B270470548D5
:1010E0000830008840F0020002490831088070474B
:1010F00004860D422C6C004029B1504A12880243EC
:101100004E4B1A8004E04D4A128882434B4B1A80A2
:1011100070474A48001D008840F010004749091DEB
:10112000088070474548001D00884FF6EF71084061
:101130004249091D08807047002140481C30018841
:10114000001F008841EA0040704700B50246FFF7E3
:10115000E0FF100C394918310880091D0A80FFF79B
:10116000E1FF00BD00B50246FFF7D3FFC2F3034025
:10117000324908310880091D0A80FFF7D3FF00BDFE
:1011800000B50246FFF7C5FF100C2C49203108803E
:10119000091D0A80FFF7C6FF00BD00202749103156
:1011A00009880907080B2549143109880843704745
:1011B00000BF2248001D008800F020000028F8D061
:1011C00070471E48001D00884FF6F77108401B4904
:1011D000091D088000BF1948001D008800F00800A4
:1011E0000028F8D0704701460020144A121D1288CA
:1011F0000A400AB1012000E0002070470F49091D94
:10120000098881430D4A121D118070470146002054
:101210000A4A121D12880A40D0B2084A12880A40AF
:1012200012B108B1012000E0002070470349091DF8
:1012300009888143014A121D11807047002800402F
:101240000CB50020019000906C48006840F480309C
:101250006A49086000BF6948006800F400300090E7
:101260000198401C0190009818B90198B0F5A06F42
:10127000F1D16248006800F4003010B10120009004
:1012800001E0002000900098012843D15C480068EC
:1012900040F010005A4908600846006820F003003A
:1012A00008600846006840F0020008605348406843
:1012B000524948600846406848600846406840F423
:1012C000806048600846406820F47C10486008460A
:1012D000406840F4E81048600846006840F08070BC
:1012E000086000BF4548006800F000700028F9D091
:1012F0004248406820F00300404948600846406882
:1013000040F00200486000BF3C48406800F00C001C
:101310000828F9D10CBD10B5FFF792FF10BD10B52C
:101320003648006840F001003449086008464068CB
:10133000344908403149486008460068324908404D
:101340002E4908600846006820F48020086008469E
:10135000406820F4FE0048604FF41F008860FFF7EB
:10136000DAFF4FF000602949086010BD10B5002178
:1013700000200022214B5B6803F00C0121B10429FD
:1013800006D0082928D107E0214B224C236027E012
:101390001F4B204C236023E0184B5B6803F4701054
:1013A000164B5B6803F48032022303EB904022B9B2
:1013B000194B4343174C23600DE0104B5B6803F45B
:1013C000003323B1144B4343124C236003E0104B12
:1013D0004343104C236003E00D4B0E4C236000BFD1
:1013E00000BF064B5B68C3F303130C4CE15C094B75
:1013F0001B68CB40074C236010BD0000001002406A
:10140000002002400000FFF8FFFFF6FE08ED00E0BC
:1014100000127A001C00002000093D00200000207E
:1014200000B585B0012144F20400FFF735FB4FF40D
:101430000070ADF8100018208DF8130003208DF80F
:10144000120004A91C48FFF76BF84FF48060ADF858
:10145000100004208DF8130003208DF8120004A959
:101460001548FFF75DF84FF4E13000900020ADF82B
:101470000400ADF80600ADF80800ADF80C000C2033
:10148000ADF80A0069460D48FFF7ADFB01210B4896
:10149000FFF735FC05B000BD70B504460D46E1B25E
:1014A0000648FFF799FC00BF80210448FFF702FDC2
:1014B0000028F9D0204670BD0008014000380140E6
:1014C00008B501213820FFF7E7FA4FF40050ADF8D6
:1014D000000010208DF8030003208DF802006946FB
:1014E0000848FFF71DF84FF48050ADF800001020B9
:1014F0008DF8030003208DF8020069460248FFF7CB
:101500000FF808BD00100140000C014010B5FFF7B6
:1015100013FE10BD10B50446FFF74AFE2046FFF744
:1015200014FEFFF745FE10BD08B54FF4C060FEF78E
:1015300029FF03208DF8000001208DF80100002014
:101540008DF8020001208DF803006846FEF71FFFAA
:1015500008BD10B501214FF0C050FFF7AAFA0120D5
:10156000FFF70DFDFFF766FD0120FFF702FA00BF50
:101570004120FFF766F90028FAD04FF48070FFF79A
:1015800014FA0120FFF717FAFFF71BFEFFF710FE12
:1015900001210846FFF7B0FDFFF70AFE47F6FF708E
:1015A000FFF7E0FDFFF704FE10BD10B501214FF07D
:1015B000C050FFF77EFA0120FFF7E1FCFFF7F8FDCE
:1015C000FFF7FFFDFFF7F4FD10BD10B539A000F0E7
:1015D00001F90420FFF763FD4AF2A551884217D0B4
:1015E00036A000F0F7F8FFF7B4FF0020FFF792FFF6
:1015F000FFF7DEFD6420FFF7C3FDFFF7D9FD35A03F
:1016000000F0E8F84AF2A5510420FFF73CFD22E083
:1016100034A000F0DFF87B20FFF713F918B138A0F1
:1016200000F0D8F80AE07A20FFF70BF918B13AA0D9
:1016300000F0D0F802E03EA000F0CCF8FFF7B5FFD4
:101640006420FFF79DFDFFF7B3FD01210846FFF77A
:1016500053FDFFF7ADFDFFF767FFFFF75BFA10BD26
:101660002DE9F843FFF752FF0446214636A000F06B
:10167000B1F83A48B4FBF0F5B4FBF0F100FB1144CB
:101680004FF46160B4FBF0F6B4FBF0F100FB1144E1
:101690003C20B4FBF0F7B4FBF0F100FB11483B46F3
:1016A000324629462EA0CDF8008000F093F8BDE820
:1016B000F88300000D0A0D0A0D0A0000C9CFB5E736
:1016C000BCECB2E2A3BA525443CEB4B3F5CABCBB2D
:1016D000AF0D0A00525443B3F5CABCBBAFCDEAB359
:1016E000C90D0A00C9CFB5E7BCECB2E2A3BA5254A7
:1016F00043D2D1BEADB3F5CABCBBAF0D0A000000EA
:10170000C6F4B6AFD4ADD2F2A3BAD6F7B5E7D4B427
:10171000C9CFB5E7720A0000C6F4B6AFD4ADD2F2B5
:10172000A3BACDE2B2BFB8B4CEBB0D0A0000000030
:10173000C6F4B6AFD4ADD2F2A3BA525443C4D6D68F
:10174000D3BBBDD0D10D0A00D4CBD0D0D7DCC3EBF6
:10175000CAFDA3BA2564A3AC0000000080510100BB
:10176000D5DBBACF2564CCECA3AC2564D0A1CAB13B
:10177000A3AC2564B7D6D6D3A3AC2564C3EB0D0ABE
:101780000000000030B50B46014600202022012455
:1017900009E021FA02F59D4205D303FA02F5491B3F
:1017A00004FA02F52844151EA2F10102F1DC30BD55
:1017B000064C074D06E0E06840F0010394E807009E
:1017C00098471034AC42F6D3FEF794FC6819000831
:1017D000881900080FB4054B10B503A9044A0298F4
:1017E00000F018F810BC5DF814FB00009914000814
:1017F0003000002002E008C8121F08C1002AFAD1F8
:1018000070477047002001E001C1121F002AFBD180
:10181000704700002DE9FF4F89B09B460446002524
:1018200006E025280BD05A460B999047641C6D1C86
:1018300020780028F5D10DB02846BDE8F08F0027AC
:10184000B8460122474900E0074314F8013F203B16
:1018500002FA03F00842F7D120782E2819D114F8A3
:10186000010F47F004072A280ED06FF02F022078CE
:10187000A0F1300109290CD808EB880102EB4101E5
:1018800000EB0108641CF2E70A98641C50F8048B12
:101890000A9020780028CED0642808D0692806D085
:1018A00075281ED05A460B9990476D1C58E00A992E
:1018B0004FF00A0901C90A91002802DA40422D219D
:1018C00002E0390504D52B218DF82010012103E019
:1018D000F90704D02021F7E78A4608AE0DE0002181
:1018E000FAE70A994FF00A0901C90A91F7E7494650
:1018F000FFF748FF303106F8011D0028F7D1ADEBA6
:10190000060000F12009780701D44FF00108C8450E
:1019100002DDA8EB090000E000208046002706E079
:1019200008A85A46C05D0B9990476D1C7F1C57450F
:10193000F6DB04E030205A460B9990476D1CB8F155
:101940000001A8F10108F5DC05E016F8010B5A4684
:101950000B9990476D1CB9F10001A9F10109F4DC64
:10196000641C65E7092801008819000800000020B0
:1019700034000000F4170008BC19000834000020EF
:10198000040400000418000800000000000000002B
:101990000001020304010203040607080902040609
:1019A0000800000000A24A0400000000000000003F
:0C19B00001020304060708090000000003
:04000005080000ED02
:00000001FF
